:10000000C0B800201DCF00004B98030009CF0000AE
:1000100009CF000009CF000009CF00000000000058
:10002000000000000000000000000000F9CF000008
:1000300009CF00000000000095CF000009CF0000AC
:1000400001D20000F9CD020001D2000001D200006F
:1000500001D2000001D2000001D2000001D2000054
:1000600001D2000001D2000001D2000001D2000044
:1000700001D2000001D2000001D2000001D2000034
:1000800001D2000001D2000001D2000001D2000024
:1000900001D2000001D2000001D2000001D2000014
:1000A00001D2000001D2000001D2000001D2000004
:1000B00001D2000001D2000001D2000001D20000F4
:1000C00001D2000001D2000001D2000001D20000E4
:0C00D00001D2000001D2000001D20000AB
:1000E00080F0004002E000BF81F0004142001FBFED
:1000F0005FEA410392EA030F7FEA226C7FEA236CF6
:100100006AD04FEA1262D2EB1363C1BFD2184140EA
:1001100048404140B8BF5B42192B88BF704710F080
:10012000004F40F4000020F07F4018BF404211F023
:10013000004F41F4000121F07F4118BF494292EA8B
:10014000030F3FD0A2F1010241FA03FC10EB0C00B7
:10015000C3F1200301FA03F100F0004302D5494244
:1001600060EB4000B0F5000F13D3B0F1807F06D3F1
:1001700040084FEA310102F10102FE2A51D2B1F1E9
:10018000004F40EBC25008BF20F0010040EA0300DE
:100190007047490040EB0000013A28BFB0F5000F5E
:1001A000EDD2B0FA80FCACF1080CB2EB0C0200FA14
:1001B0000CF0AABF00EBC25052421843BCBFD04063
:1001C0001843704792F0000F81F4000106BF80F4DD
:1001D00000000132013BB5E74FEA41037FEA226CA0
:1001E00018BF7FEA236C21D092EA030F04D092F06B
:1001F000000F08BF0846704790EA010F1CBF00209F
:10020000704712F07F4F04D1400028BF40F00040FB
:10021000704712F100723CBF00F50000704700F01B
:10022000004343F0FE4040F4000070477FEA226242
:1002300016BF08467FEA23630146420206BF5FEA13
:10024000412390EA010F40F4800070474FF0000313
:1002500004E000BF10F0004348BF40425FEA000CDA
:1002600008BF704743F0964301464FF000001CE082
:1002700050EA010208BF70474FF000030AE000BFD8
:1002800050EA010208BF704711F0004302D5404216
:1002900061EB41015FEA010C02BF84460146002088
:1002A00043F0B64308BFA3F18053A3F50003BCFAA3
:1002B0008CF2083AA3EBC25310DB01FA02FC634450
:1002C00000FA02FCC2F12002BCF1004F20FA02F257
:1002D00043EB020008BF20F00100704702F120024A
:1002E00001FA02FCC2F1200250EA4C0021FA02F2AB
:1002F00043EB020008BF20EADC7070474FF0FF0CB0
:100300001CEAD0521EBF1CEAD15392EA0C0F93EAAA
:100310000C0F6FD01A4480EA010C400218BF5FEA4C
:1003200041211ED04FF0006343EA501043EA5111BF
:10033000A0FB01310CF00040B1F5000F3EBF4900B9
:1003400041EAD3715B0040EA010062F17F02FD2ABD
:100350001DD8B3F1004F40EBC25008BF20F00100A0
:10036000704790F0000F0CF0004C08BF49024CEAB7
:10037000502040EA51207F3AC2BFD2F1FF0340EA49
:10038000C250704740F400004FF00003013A5DDCBA
:1003900012F1190FDCBF00F000407047C2F10002FB
:1003A000410021FA02F1C2F1200200FA02FC5FEAE8
:1003B000310040F1000053EA4C0308BF20EADC7032
:1003C000704792F0000F00F0004C02BF400010F4A4
:1003D000000F013AF9D040EA0C0093F0000F01F051
:1003E000004C02BF490011F4000F013BF9D041EA73
:1003F0000C018FE70CEAD15392EA0C0F18BF93EA75
:100400000C0F0AD030F0004C18BF31F0004CD8D19E
:1004100080EA010000F00040704790F0000F17BF25
:1004200090F0004F084691F0000F91F0004F14D06B
:1004300092EA0C0F01D142020FD193EA0C0F03D1C3
:100440004B0218BF084608D180EA010000F00040C6
:1004500040F0FE4040F40000704740F0FE4040F4A1
:10046000400070474FF0FF0C1CEAD0521EBF1CEA40
:10047000D15392EA0C0F93EA0C0F69D0A2EB03025E
:1004800080EA010C49024FEA402037D04FF08053F8
:1004900043EA111143EA10130CF000408B4238BFBD
:1004A0005B0042F17D024FF4000C8B4224BF5B1ACB
:1004B00040EA0C00B3EB510F24BFA3EB510340EA19
:1004C0005C00B3EB910F24BFA3EB910340EA9C00C7
:1004D000B3EBD10F24BFA3EBD10340EADC001B0137
:1004E00018BF5FEA1C1CE0D1FD2A3FF650AF8B42DB
:1004F00040EBC25008BF20F0010070470CF0004CE8
:100500004CEA50207F32C2BFD2F1FF0340EAC25012
:10051000704740F400004FF00003013A37E792F0D3
:10052000000F00F0004C02BF400010F4000F013A31
:10053000F9D040EA0C0093F0000F01F0004C02BF2C
:10054000490011F4000F013BF9D041EA0C0195E795
:100550000CEAD15392EA0C0F08D142027FF47DAF2E
:1005600093EA0C0F7FF470AF084676E793EA0C0F1E
:1005700004D14B023FF44CAF08466EE730F0004C1C
:1005800018BF31F0004CCAD130F000427FF45CAFAC
:1005900031F000437FF43CAF5FE700BF42000ED272
:1005A000B2F1FE4F0BD34FF09E03B3EB126209D4AE
:1005B0004FEA002343F0004323FA02F070474FF064
:1005C0000000704712F1610F01D1420202D14FF0D9
:1005D000FF3070474FF00000704700BF53B94AB971
:1005E000002908BF00281CBF4FF0FF314FF0FF303B
:1005F00000F00CB8ADF1080C6DE904CE00F01AF86B
:10060000DDF804E0DDE9022304B07047704700BF65
:1006100010F8012B11F8013B012A28BF9A42F7D0AC
:10062000D01A7047034613F8012B002AFBD1181A81
:10063000013870472DE9F04786468C460846089EEB
:10064000154674461946002B40F0C2808542B2FA26
:1006500082F245D94AB1C2F1200300FA02FC2EFA17
:1006600003F3954043EA0C0C94404FEA154EA8B2B0
:10067000BCFBFEF8230C0EFB18CC08FB00F943EA88
:100680000C43994528D9EB1808F1FF3704D2994556
:1006900002D9A8F102072B44A3EB0903A4B2B3FBD0
:1006A000FEFC0EFB1C330CFB00F044EA0344A042AA
:1006B00014D92C190CF1FF3304D2A04202D9ACF1A9
:1006C00002032C44241A43EA07401EB1D4400023FD
:1006D00034607360BDE8F0874746DDE76346F1E7C5
:1006E00092BB431B01214FEA154EAFB2B3FBFEFC98
:1006F000200C0EFB1C330CFB07F840EA0343984523
:1007000062D9EB180CF1FF3004D2984502D9ACF154
:1007100002002B44A3EB0803A4B2B3FBFEFC0EFBC8
:100720001C330CFB07F744EA0344A7424ED92C19AB
:100730000CF1FF3304D2A74202D9ACF102032C44DE
:10074000E41B43EA0040C0E7C2F1200320FA03F1B2
:10075000954090402EFA03F303434FEA154EAFB293
:10076000B1FBFEFC0EFB1C10190C0CFB07F841EA58
:100770000041884504FA02F422D969180CF1FF30CF
:1007800004D2884502D9ACF102002944A1EB08014A
:100790009BB2B1FBFEFC0EFB1C110CFB07F743EAFE
:1007A00001439F420ED9EB180CF1FF3104D29F4256
:1007B00002D9ACF102012B44DB1B41EA004192E774
:1007C0006046E3E76146F7E76046A3E76346B7E7BD
:1007D000834206D916B9002108467BE7C6E900E046
:1007E000F9E7B3FA83F78FB9834201D3724508D88A
:1007F000BEEB020460EB030301209C461EB90021FE
:1008000068E73846FAE7C6E9004CF8E7C7F1200C7C
:10081000BB4022FA0CF41C432EFA0CF120FA0CF324
:10082000B84001434FEA14490EFA07F5B3FBF9F853
:100830001FFA84FE09FB18300B0C08FB0EFA43EA82
:1008400000439A4502FA07F240D9E31808F1FF3055
:1008500004D29A4502D9A8F102002344A3EB0A036B
:1008600089B2B3FBF9F809FB183308FB0EFE41EA25
:1008700003418E452CD9611808F1FF3304D28E450F
:1008800002D9A8F10203214443EA0040A0FB0298E8
:10089000A1EB0E014145CE46434602D306D14D455C
:1008A00004D2B9EB020E68EB04030138002EA6D087
:1008B000B5EB0E0261EB030101FA0CFC22FA07F31F
:1008C0004CEA0303F940C6E9003198E74046C5E722
:1008D0004346D9E70000000010B54FF0FF304FF05D
:1008E000FF310DF0E3FFD8B1044608210C3039F098
:1008F000D2FA02460E4B93F8903013F0010F0BD151
:100900000C484FF0005139F0B2FC0022214640F66D
:1009100001400EF047FD10BD03A1D1E90001F2E74F
:100920006FF06800F7E700BF9088000200800020A9
:10093000380000201088000270B5234C9DF810E0AC
:1009400094F84AC01CF0020F36D1460816F0040590
:1009500032D149B363F3830C400194F826302187E8
:100960004FEACE0E0EF0180E00F0200040EA0E0006
:1009700023F03803184394F8303084F826001348E5
:1009800084F84AC066F3020384F830309121A2FB58
:10099000000301FB02310AA3D3E90023FFF71EFE87
:1009A000E0632064284670BD94F8303065F302039C
:1009B00084F83030284670BD0C25284670BD00BF35
:1009C0008D49FD1A0700000040370020002AE78407
:1009D00010B504469DF8080022854FEA411CC0006E
:1009E000A17D00F018000CF0200C4CEA000C0C4823
:1009F00021F038014CEA010CA3FB0002912184F89C
:100A000016C001FB032104A3D3E90023FFF7E6FD91
:100A1000E06210BDAFF300808D49FD1A07000000B1
:100A2000002AE784000000002DE9F04790F84A30E2
:100A300090F82620524D6FF30003044600F1320176
:100A4000C3F3800060F386128CB084F84A3084F8D7
:100A5000262020F091FB94F82620238F494824611A
:100A600002F07902002784F826209121A3FB0002DE
:100A7000C4E90277277001FB03213FA3D3E90023D8
:100A8000FFF7ACFD651B226C3F4BAD08A3FB0535A2
:100A900002F10E0398428EBF19463A460146E263C0
:100AA0006160064620F01AFB6369C5F3470500F153
:100AB0000E07002B46D00DF12C08CDF820800694AF
:100AC000238F30484FF0000AA3FB0002CDF80CA0A2
:100AD000912101FB0321636804932C4B07932C4B5A
:100AE00005934FF0020924A3D3E90023CDF82C90FD
:100AF000FFF774FD104619464FF47A720023FFF792
:100B00006DFD0235EDB22A46CDE901603B46032179
:100B1000CDF800A0504620F045F9414621F086FA74
:100B2000054658B994F84A304846034384F84A3099
:100B30002BF0C6FC28460CB0BDE8F0870C200CB0AA
:100B4000BDE8F0870DF12C08CDE90A336168434612
:100B50000AAA032001F0C4F90028AED10B990D4870
:100B600005A3D3E90023A1FB0001FFF737FD0A9B92
:100B700020F07F471F44A0E78D49FD1A07000000C1
:100B800040370020002AE784BD86F21A4112020095
:100B9000A94E020000CA9A3B2DE9F04F0B79062BB3
:100BA00093B00C46064614D0092B00F0A280B14A3F
:100BB000B149B2484FF4CC7337F0E7F9002383F31F
:100BC0001188BFF36F8F0323184602DF13B0BDE80F
:100BD000F08FD1F80890D9F818306BB1A54AA84920
:100BE000A648D92337F0D1F9002383F31188BFF346
:100BF0006F8F0323184602DFD9F80080404624F0A7
:100C0000C7FCA37E2660002767F38613A37694F8BB
:100C10002130E760002B62D00230C2B20B9204F1A7
:100C2000220A3D46BE46012294F82210880652D080
:100C300094F823C01CF0010F14BF04F12A0004F142
:100C400024001CF0020F18BF06301CF0040F18BF60
:100C500001301CF0080F18BF02301CF0100B1CBF35
:100C6000834603301CF0200F18BF12301CF0400FD9
:100C700018BF0130C1F30501A0EB0A000131C9B270
:100C8000C0B2814238BF014699423ABF591A5FFA51
:100C900081FA4FF0000ABBF1000F7BD09BF802C035
:100CA0009BF801004FEA0C2101F4F851014371D087
:100CB000BEF1000F00F0FC80002D00F02182AB8D12
:100CC00053449BB2AB85A383AB6A002B00F0C18079
:100CD000DC60AC627AE7013BDBB2002D3BD1A38341
:100CE0002146304621F0F8F813B0BDE8F04F21F06E
:100CF000FFB88F68634B3D689D4258D1D5F820906E
:100D0000B9F1000F00F090805E49302208461EF0D5
:100D100023FE0330C3B20B93D9F8000024F054FC37
:100D20007A7902F00702012A80463ED0022A2BD1AE
:100D3000072394F81AE023710021734661F38613A8
:100D4000A37694F821302660E16023B1CEF3C00E83
:100D500004F1220A68E7AA8D13449BB2AB85A383F2
:100D6000B8F1000F42D098F84A30AA6ADB0700F1C8
:100D70009A80D4602E6AAC62002E46D0284613B00A
:100D8000BDE8F04F24F002BD3A4A3B493B484FF4DE
:100D9000AB7311E7002D56D0AB8D53449BB2AB859E
:100DA000A383BEF1000FDBD08EE70623C1E7D1F8A5
:100DB0000C80B8F1000F00F08980D8F800502B6A41
:100DC0009F426BD02B4A30492C4840F21D1337F01C
:100DD000DCF8002383F31188BFF36F8F03231846D9
:100DE00002DFFF23B9460B93474695E7214A27497F
:100DF000224840F2BA3337F0C8F888F31188BFF3BD
:100E00006F8F0323184602DFADE71A4A20491B48BB
:100E100040F2E23337F0B9F886F31188BFF36F8FF1
:100E20000323184602DFA9E7124A1A49134840F281
:100E3000051337F0AAF889F31188BFF36F8F0323E6
:100E4000184602DF60E7A4F81CA0BEF1000F3FF4D3
:100E500047AF084A1049094840F25A2337F095F83D
:100E6000002383F31188BFF36F8F0323184602DF3B
:100E7000AB6A2DE748E8040078FA0400F4B20400F5
:100E8000A4E80400CC610020C0E80400885E0400EF
:100E90008CE80400B4E80400D4E80400FF23B94659
:100EA0000B93474638E7AB6AA3427FF411AF8DE658
:100EB000BCF13F0F4FEA5C1017D9002D00F02381E1
:100EC000AB8D53449BB2AB85A38349E7BA4ABB4978
:100ED000BB484FF48D7337F058F888F31188BFF38F
:100EE0006F8F0323184602DF67E79BF900C09BF86A
:100EF00000E0BCF1000F02F0030C634403F10903AE
:100F0000B4BF4FF4967C4FF01E0CC2F34002DB00DE
:100F1000D3400CFB01F2CDF840C003F59671944428
:100F20008C45C0F0E9801EF0400F14BF32214FF411
:100F3000FA71DFF890C202FB01F1ACFB01C1890C30
:100F40000C910121CDE90D2301FA00F3D8B20F93E2
:100F50002CF07CFB61690E9B0D9A11902F39CB1AF6
:100F600013440C9A1B1A98489B1AA3FB000190A3E8
:100F7000D3E90023FFF732FB20F07F430D9394F970
:100F80001A30002B80F2AD80002D00F0BF80AB8DB9
:100F900053449BB21E2BAB8504D994F91A30002B15
:100FA000BFF6DEAEAB6A002B00F0C780DC60AB8D15
:100FB000AC62A3839BF800100F9BBA8801F03F013D
:100FC00041EA032122F4E76240F23F7322F0070274
:100FD0000B401343BB8094F91A30002BC0F2AF8052
:100FE000B8F1000F00F0CA8098F84A6016F00106C8
:100FF0007FF459AF7879119B734A03F5EA7100F0D9
:1010000003030933C0F34000DB00C3406F480B44C7
:101010000721E3FB020166A3D3E90023FFF7DEFA11
:101020000C9B109A2F3302EB430320F07F40686043
:101030003246BB60022101201EF0FEFC0B9BFF2B01
:101040001BD0CDE900661A4623690D993F3B0B443E
:10105000304601211FF014FF10F0FD0F0DD0564A4D
:101060005B49574840F28F3336F08FFF86F3118883
:10107000BFF36F8F0323184602DF564930222846FC
:101080001EF06AFC544A2369CDE90725534ACDE98D
:10109000052569680024CDE90341C21C0D99009122
:1010A000CDE901443F3BD2B2012120461FF07AFE38
:1010B00010F0FD0F0DD0404A4949414840F29F339E
:1010C00036F063FF84F31188BFF36F8F0323184654
:1010D00002DF01220221104613B0BDE8F04F1EF0DE
:1010E000ABBC1FF0FBFF23690D9A243B99181FF03E
:1010F000F7FF02023FF548AF002D7FF431AEEFE578
:10110000A4F81CA0A5E6A4F81CA0E9E535481EF04B
:10111000F5FB0546002840D00023027D0370C0E99E
:10112000023363F3C712A0F82CA00061027543627A
:101130008362C0F8209000F110076C6237E7D9F89D
:10114000183083B1BB420ED01B4A27491C4840F2DD
:10115000333336F01AFF002383F31188BFF36F8F08
:101160000323184602DFC9F81870A37E43F040033A
:10117000A3763B796FF386133B7127E50E4A1B4933
:101180000F4840F24A3336F000FF88F31188BFF36E
:101190006F8F0323184602DF26E794F91A30002BDD
:1011A000BFF69EADA37E43F04003A37698E500BF53
:1011B0008D49FD1A0700000048E80400B8E8040063
:1011C000F4B2040083DE1B4300CA9A3B8C49FD1A2B
:1011D00014E90400CC610020795802007556020021
:1011E00044E90400C8610020E8E80400885E0400C7
:1011F0002DE9F0418468A28C4FF6FF739A428AB0C1
:1012000075D00546204627F047FBAB7C012B00F04C
:101210003181022B00F02381002B00F0038194F830
:101220003881B8F1000F40F01E81A68DEB89E78D63
:101230000136B6B2002B5DD12B7C03F00303012BEA
:1012400000F0EB80B4F86A31002B5BD0B34240F27F
:101250003C819B1BA4F86A31B4F86E31002B00F07E
:10126000DF80B34240F22F819B1B9BB2062BA4F878
:101270006E314FF000028CBF00230123E2859846B7
:1012800094F83A2063F3820284F83A2031460DF153
:101290002702204627F08AF8743023D0B4F868314A
:1012A0002BB1B34240F2FB809B1BA4F86831B4F829
:1012B00064312BB1B34240F2EB809B1BA4F8643144
:1012C00094F8B530E58D03F00103B8F1000F37D184
:1012D000AF4262D00135ADB2002B61D13DB1434682
:1012E000404631E09DF82710204625F021FA0AB04B
:1012F000BDE8F081A4F86A812B7C03F00303012B85
:1013000000F08B80B4F86E31002BAAD1E28C052A54
:1013100097BF013240F2E2434FF4FA7392B203FBFB
:1013200002F2B4F86C3142F2107101FB0323013B6D
:10133000B3FBF2F39BB2A4F86E31002B91D16FE0B6
:101340000135ADB263BB0020A28C26690696CDE9BB
:1013500001300024684805900432CDF810800395D0
:1013600000942346D2B2012120461FF037FD10F031
:10137000FD0FBCD020F06CFE8642B8D05F4A6049B9
:10138000604840F2825336F000FE84F31188BFF3C8
:101390006F8F0323184602DFA9E7002BA7D045462D
:1013A00094F8B53094F937206FF30003002A84F8DD
:1013B000B53065DB94F85A00C0F3C00100F00700B7
:1013C0002CF042F994F85A2094F85B1002F00303D1
:1013D0000933C2F34002DB00D34001F003020932BB
:1013E000C1F34001D200CA40E18B01F5EC710B441E
:1013F00013440344444A45480721E3FB00211046B7
:101400003BA3D3E90023FFF7E9F8636820F07F40AE
:10141000834253D2C31A606095E70023A4F86E316B
:1014200000232DE794F8723003F01803182B7FF493
:10143000F6AE218DB4F866218B1D9A42C4BF931F6E
:101440005B1AB4F86211CCBF9BB21346994242D0EA
:10145000A4F86231A4F86431A4F86821DFE64FF003
:101460003D0884F83881414620460AB0BDE8F04185
:1014700025F05EB90023A4F86831A4F86431CEE603
:1014800094F85B00012100F007002CF0DFF899E7E9
:101490000023A4F86431204627F00CF810E720F070
:1014A0005BFD014698B10023A4F86831A38CC3808A
:1014B0001B230371006820F021FDF8E66060181A14
:1014C0000FD0002340E70821CEE73E21CCE70123DF
:1014D000A4F86831EBE6B4F8681100297FF49FAEF8
:1014E000B8E7002DEDD1B8F1000FEAD1FFE600BF5B
:1014F0008D49FD1A07000000F15D0200B4E9040007
:1015000094EA0400F4B204008C49FD1A00CA9A3B24
:101510002DE9F04F8FB0078EBDF864200D9303784E
:10152000BDF86090BDF868A0BDF86C80CDE90B12E5
:101530000446002B00F02581013FBFB294F85A0009
:10154000D4F8F4300A93C0F3C00100F007002CF087
:101550007BF8E58CA7EB0806052DB6B240F20A81B0
:1015600015FB06F5ADB240F2E24BB9F1050F40F2C2
:10157000F580B4F85220B4F85030134403F26E23CF
:101580000344914A91480721E3FB00214FF0961351
:10159000E36196231046238489A3D3E90023FFF750
:1015A0001DF84E4620F07F4040F2E24303FB06F672
:1015B0000BFB05F56060B5FBF6FB1FFA8BF006FB35
:1015C00000F085421FFA8BFB80F0BA807F49401BF8
:1015D0007BA3D3E90023A0FB0101FEF7FFFF0A9BD9
:1015E00020F07F451D44638DB4F8FC2013449844DB
:1015F00094F83730A8EB0708C344DB09A4F82AB0F5
:1016000040F0C6800D9B7148A3FB00016CA3D3E999
:101610000023FEF7E3FF20F07F4701370C9B238573
:1016200031462046A4F82690A4F86CA126F0FAFED4
:10163000674B218D3344881DB3FBF6F39AB2904279
:10164000A4F8662104D2C1F57F41FA310A4492B26E
:101650000B9BA4F8622113B10023A4F86E31022180
:1016600001202EF0E1FF00220221814601201EF020
:10167000E3F958494FF4C47220461EF06DF900F1A9
:101680000408554B00935FFA88F801942B464246B4
:10169000012100201FF07AFC10F0FD0F0ED04F4A00
:1016A0004F49504840F6B40336F06FFC002383F3F3
:1016B0001188BFF36F8F0323184602DF434840A30E
:1016C000D3E9002386FB0001FEF788FF0894069407
:1016D000194663680493444B0793444B05934FF6B4
:1016E000FE7306460393104600234FF47A72FEF70A
:1016F00075FF0097CDE901602B464246012100208D
:101700001FF050FB10F0FD0F0ED0344A344935481D
:1017100040F6C90336F039FC002383F31188BFF388
:101720006F8F0323184602DFB9F1000F40D194F800
:10173000603143F0010384F860310FB0BDE8F08FF1
:101740002D1A22481EA3D3E90023A5FB0001FEF7B2
:1017500045FF0A9B20F07F455D1B44E74FF0961341
:1017600009F10106E36196232384B6B20F204FF4FA
:10177000FA731BE7013515FB06F5ADB24FF4FA7BA2
:10178000F3E6438D1F44B0F8FC301F44BFB2D5E6EA
:10179000124A1749134840F6851336F0F6FB002726
:1017A00087F31188BFF36F8F0323184602DF35E7F5
:1017B0000122022110461EF03FF9B8E7AFF3008086
:1017C0008D49FD1A070000008C49FD1A00CA9A3B9A
:1017D0007FC3C90190370020955E0200B4E9040080
:1017E00014E90400F4B20400355E02009DB5020065
:1017F00078FA0400000000002DE9F04F8DB0CDE92B
:1018000006019B460020BDF868309DF85C80BDF85D
:101810006090BDF864A09DF86C500392059323F08E
:10182000F3FE002800F0A08008F0010604463046D0
:101830001FF092FC0490002E40F08E80169B0499BD
:101840005A46304624F05CFE002840F09180012D7D
:1018500000F28A8094F8303065F3020384F8303067
:101860006369089304F110020992002B00F0908044
:1018700067693D680BF0010997F84A00C0F3C001A1
:1018800000F007002BF0E0FE94F83010B7F840208D
:1018900001F003032833C1F34001DB00CB40934246
:1018A00038BF1346A7F8403094F830C0B7F842105C
:1018B0000CF003022832CCF3400CD20022FA0CF2D6
:1018C0008A4238BF0A469918FB89A7F8422000F5DA
:1018D000EC7018444318B44AB4480721E3FB0021D4
:1018E0001046AFA3D3E90023FEF778FE20F07F4037
:1018F0006860039D28462AF001FE238E03F0BF0393
:1019000063F0FF032386002D36D0A8F10203012BDC
:1019100040F2218194F84A1068F3830184F84A1058
:1019200094F8301069F3451184F83010169909685D
:10193000A16116998988A1830599A18403990091D1
:10194000DDE9062304F110000021FFF741F82064CF
:1019500000200DB0BDE8F08F06211EF011F8002820
:101960007FF46CAF1220F4E70C200DB0BDE8F08FCF
:101970000B200DB0BDE8F08F2BF080F90028C4D00B
:10198000039A169958462AF0B9FE84F83100BCE74C
:1019900020F08AFA0990002800F0FE8024F0F4FA82
:1019A0000546002800F0F58014301EF0A5F905F179
:1019B0001007002840F0DA80032105F118002BF011
:1019C00013FDE86EA5F828A04FF6FF73A5F8269042
:1019D000AB84002800F0D98005F1600205F15C01BC
:1019E0001DF0DAFFB5F85A3023F4EF6323F0070354
:1019F00043F48C7343F00103A5F85A3095F8723024
:101A00004FF0000A23F0070385F8723001212846C1
:101A1000C5F86CA0A5F870A025F0D8F9A5F82AA003
:101A2000C5F82EA005F1320029F0C0FF95F8373037
:101A300060F30503012185F837300DF12F002BF0FD
:101A4000D3FC059B9DF82F20A5F86C31584B85F8E9
:101A500039A0A3FB0213DB0803EB4303A2EB8302D1
:101A600095F83730298DA5F86EA103F03F0385F86E
:101A7000373095F83A30A5F864A1053223F0070312
:101A800085F8382085F83A3040F2E242494B02FBB3
:101A900009F94FF4C0224B44C5F86821881DB3FBF7
:101AA000F9F39AB28242A5F8662102DD063A521A8B
:101AB00092B2A5F86221284626F03CFC4946284609
:101AC00026F0B0FC4FF0000A099BC5F83C3185F8C0
:101AD00038A124F009FD95F8743160F3020385F80C
:101AE000743124F007FD95F8743160F3C50385F86F
:101AF000743195F860316AF3410385F8603105F17E
:101B0000B80026F0F1F995F87A31169A0BF0010930
:101B100069F3410385F87A314FF09613C5E907332D
:101B2000169B1B68C5F8813195F87A319288A5F823
:101B3000852168F30003049A85F87A311368C5F8A3
:101B40007B319388A5F87F316761C5E902AA85F8E2
:101B500000A02D6190E600202AF0EAFC94F83030D5
:101B600043F04003B04684F83030D3E6124A1349BC
:101B70001348C12336F009FA089B83F31188BFF399
:101B80006F8F0323184602DF16E705F16400E8664D
:101B900022E7099820F08EF90720DAE6AFF30080FB
:101BA0008D49FD1A070000008C49FD1A00CA9A3BB6
:101BB000ABAAAAAA7FC3C90188EF0400E4E204002B
:101BC000F4B20400000000002DE9F04F04468DB08F
:101BD00090F82070A38D806AADF82C30E307C7F32E
:101BE000C0180E461546C7F340170A9000F10C8145
:101BF00000232384B37C707C13F001031CBFD4F852
:101C00002230C4F82F3004F12F0214BFE38CC4F843
:101C10002F30FF28938004F1290904F1230200F0FA
:101C2000E58004F122012AF019F994F82230BDF878
:101C30002C200A98C4F82900023384F82230A9F82D
:101C400004203368D3F800A0EB8AE3862B8B23872C
:101C5000BAF8243063872BF02FFF84F83C00D5F8C6
:101C60000090484624F09CF90021A882E080484674
:101C700026F0ECFBD6F804802068214620F02CF9F1
:101C8000AB8AA8F806301C23D8F8004088F8043046
:101C9000002F40F0C98088F820704146204620F08F
:101CA0002DF995F84A00B5F816B0F46840F2E24311
:101CB000C0F3C00100F0070003FB0BFB2BF0C4FCDA
:101CC0000022A4EB0008022101201DF0B5FE5046C1
:101CD00023F05EFC5C4CA8FB044859A3D3E9002325
:101CE000054641462046FEF779FCCDF804A0B368CE
:101CF0005649009120F07F47AA1C3F3BD2B23B449B
:101D0000012100201FF042F910F0FD0F0ED0504AC3
:101D10005049514840F2413336F037F9002383F3FC
:101D20001188BFF36F8F0323184602DF4FF0000ABC
:101D3000012211465346CDF800A050461FF0E4F8AA
:101D4000484624F02DF905463F483DA3D3E900233A
:101D5000ABFB0001FEF742FC1946404BB668089306
:101D60003F4B069340F27133CDF81C900993D9F89C
:101D700004308346CDE904A3104600234FF47A7261
:101D8000FEF72CFC374B0722A7FB0331CDE902B04D
:101D900002FB0711E01A68EB01014FF47A7200238D
:101DA000FEF71CFC04353F3EEDB2CDE90070334632
:101DB0002A46012150461EF0A1FF10F0FD0F0DD064
:101DC000234A2449244840F2723336F0DEF88AF37D
:101DD0001188BFF36F8F0323184602DF012202210F
:101DE00010460DB0BDE8F04F1DF026BE0023BDF833
:101DF0002C100A98C4F82930A9F8043084F82280FD
:101E0000C4F8230091801CE7114A1749124840F298
:101E1000BD2336F0BAF8002383F31188BFF36F8F28
:101E20000323184602DFE3E695F8273043F040032A
:101E300085F82730281D29F00FFE012728852AE77D
:101E40008D49FD1A0700000000CA9A3B65B50200E3
:101E500088EF040014E90400F4B2040069B502003C
:101E60009DB502008D49FD1A80E6040000000000C7
:101E70000438C3B2012B01D90020704770B580B27D
:101E80000D4624F095F8044638B190F93730002B10
:101E900005DA40682860204670BD002070BD90F8CB
:101EA0005A000D4EC0F3C00100F007002BF0CCFB30
:101EB0000A4A00F24E600721E0FB0621104604A307
:101EC000D3E90023FEF78AFB20F07F40E2E700BF62
:101ED0008D49FD1A0700000000CA9A3B8C49FD1A83
:101EE0002DE9F04F93B0FF270B930B1D0A930023AE
:101EF000CDE90E33054616468DF837709B4608939C
:101F00003C46984699460DF13C0A10AB0693624B4D
:101F10000593624B03930EAB0020009302231093B2
:101F2000CDF804A00490029033460DF13702294603
:101F30001FF070F8022812D0109BB3B9FF2C25D0E7
:101F40003368434522D0002F52D0013FFF24FFB217
:101F50008DF83740D9E7294600201FF0A7F8109BDD
:101F6000022BF8D0109B002BE8D04D4A4D494E482B
:101F700040F2D91336F009F8002383F31188BFF338
:101F80006F8F0323184602DFFF2CD9D19DF837004D
:101F9000FF283CD011A9FFF76BFF0028B5D09DF8B2
:101FA00037000438C3B2012B18D9FF2CDDF8388074
:101FB000119B0AD05946404609931FF091F80A9B9D
:101FC00003EB09029042099B23D899460F9B9DF889
:101FD00037400893C346D6F8008096E780B223F0D6
:101FE000E7FF0028E1D090F93730002BDDDA8CE7ED
:101FF0002E492B4A2C4840F2E11335F0C6FF87F3F7
:102000001188BFF36F8F0323184602DF9DE7FF2C73
:1020100037D027480721A9FB000301FB09311CA386
:10202000D3E90023FEF7DAFA044600B13E340899FA
:10203000204AA1F57423A3F51073934217D81C48C6
:102040000721ABFB000301FB0B3111A3D3E90023F4
:10205000FEF7C4FA089A184BA3FB022304EB93443F
:102060000B9B044400201C6013B0BDE8F08F01F10D
:10207000E87303F5D43303F5A5730BF1FF3B089325
:10208000DDE76FF0090013B0BDE8F08FAFF300801B
:1020900000CA9A3B0000000051B9020055B9020085
:1020A00004F0040018B60400F4B2040048F0040080
:1020B0008D49FD1ABFBDF07F83DE1B430000000089
:1020C0002DE9F043C668476873683D491A68D0F83F
:1020D0000090A7F57423A3F510738B4283B080465C
:1020E00007D907F1E87707F5D43709F1FF3907F584
:1020F000A57773685168DD8ACDF8049006F1100366
:1021000001AA0220FFF7ECFE00284ED10199A1EBB5
:1021100009031B0237D4084649461EF0E1FF034677
:1021200028480721A3FB000201FB032122A3D3E9D6
:102130000023FEF753FA34690444002C346109DBB0
:1021400040F2E24305FB03F3A3422FD2E41AA34279
:10215000FCD33461D8F800301A48A3EB0903A3FB81
:102160000002072101FB032113A3D3E90023FEF79B
:1021700035FA154BA3FB0737A0EB9740204430619D
:1021800003B0BDE8F08348461EF0AAFF03460D48A1
:102190000721A3FB000201FB032107A3D3E90023CE
:1021A000FEF71CFA3469241AC7E73469002CD1D130
:1021B00003B0BDE8F08300BF00CA9A3B00000000F6
:1021C000BFBDF07F8D49FD1A83DE1B430000000078
:1021D0002DE9F04F8FB00DF137010446DFF8D0A0A4
:1021E000DFF8D0800DF136001FF0F8FE9DF8363094
:1021F0009DF837B00B931EF071FFDAF80060A6FB74
:10220000085629A3D3E900230027814631462846F2
:10221000FEF7E4F9CDE90777069420F07F44DAF879
:102220000400254B0593A0FB08011FA3D3E900235D
:10223000FEF7D4F9214B20F07F40A4FB03310722A5
:1022400002FB0411CDE90370E81A66EB01014FF4BB
:102250007A720023FEF7C2F90097CDE901404B46A0
:102260000B985A4603211EF09DFD10F0FD0404D08A
:102270006FF08B000FB0BDE8F08F1148114A0023BA
:1022800033F0A8FD20B9DAF80C000FB0BDE8F08FEC
:102290009DF837209DF836000094234603211EF058
:1022A00033FE6FF07300E5E78D49FD1A070000006B
:1022B000346A002000CA9A3B81CD02008D49FD1A84
:1022C0001C6A0020447B0B0038B50F4D04461EF0FD
:1022D00005FFA9681EF004FF696803460B48B3FBBD
:1022E000F4F4A1FB00011C4405A3D3E90023FEF78D
:1022F00075F920F07F40844294BF0020012038BD52
:102300008D49FD1A07000000346A002000CA9A3B7C
:102310002DE9F041C46894F91630002B8CB0C0F25E
:102320001681636805460E46002B40F00581A37DAB
:102330006FF30003A3752DF01DFC00202DF070FC41
:1023400094F82000012100F007002DF05BFC94F8C8
:1023500020209200252102F01C0208202DF094FC80
:1023600094F8203023F01803012084F820301FF067
:1023700023FF0746002800F0D08007F120002DF051
:10238000ADFC8D4B0B930BA82DF06AFC8B4940F2F2
:102390005B602DF017FDA07DC0F3410025302BF0D0
:1023A0000FF9874821462DF0A3FBA37D9B0603D49C
:1023B0006368002B00F0AE8096202DF055FE0023C0
:1023C0001A46194618462DF067FD2AF057FC0028DA
:1023D00038D1A37D13F0180F5FD1D4F800802F6897
:1023E00040462BF0D9F807446A6807F10E01002037
:1023F0002DF046FE2DF050FF2DF0BEFD204623F0BF
:10240000D5F8811CC9B240463A462BF0C7F8804641
:10241000002840F0A38016B9E36A002B56D1636808
:1024200043B1684B0122022100209D601DF038FB62
:1024300000283BD120462BF049F8F0B900200CB021
:10244000BDE8F081A07DC0F3C00029F0F9FF074688
:102450000DF12B002AF07CFA79788046BA1C387886
:102460002DF0AEFD94F820209DF82B0092004146FF
:1024700002F01C022DF0D6FFAFE7534A53495448EF
:1024800040F20B2335F081FD002383F31188BFF365
:102490006F8F0323184602DFD0E7012029F0D0FF19
:1024A0004178821C00782DF08BFD96E7464A494919
:1024B000474840F2062335F068FD002383F3118876
:1024C000BFF36F8F0323184602DFB3E7424A079238
:1024D000424A059240F2F31200930892CDE9036656
:1024E000CDE9016606943B46012231461EF05AFCB6
:1024F00010F0FD0F93D0344A394935484FF4FA7340
:1025000035F043FD86F31188BFF36F8F0323184620
:1025100002DF84E72DF020FD57E72B4A31492C4894
:102520004FF4C57335F031FD87F31188BFF36F8F1A
:102530000323184602DF20E7636893F82A30D9079F
:1025400005D4636893F82A309A077FF5F0AE2648E1
:1025500021462DF0CDFA2DF0E3FB6FE71A4A23490F
:102560001B4840F2E51335F010FD214B0721A8FB75
:10257000030301FB08310EA3D3E90023FEF72EF875
:102580001C4902461C4835F000FD002585F31188E2
:10259000BFF36F8F0323184602DF184821462DF042
:1025A000A7FA2DF0BDFB6FF08B0048E7AFF300807A
:1025B00000CA9A3B00000000D6BE898E55555500D2
:1025C000A12600007805002018F40400ECE30400C4
:1025D000F4B2040018E3040079DE0200ADDE02006C
:1025E000C4E7040064F404002DD7020078FA040064
:1025F0008D49FD1AC0F404006CF404001DDC0200D7
:1026000038B504462BF0AEFAA37DA27DC3F3410397
:10261000013303F00303032B08BF002363F34202DB
:1026200014BF03F125002520A2752AF0C9FF6368B5
:102630000BB123694BB91EF051FDC11C00202DF0D8
:1026400093FDBDE838402DF027BE2DF0E3FD054693
:102650001EF044FDC11C00202DF086FD2DF01CFE57
:102660002DF0D8FD29461EF03BFD0B4A03460721FD
:10267000A0FB020201FB032105A3D3E90023FDF720
:10268000ADFF23691B1A236138BD00BFAFF3008083
:1026900000CA9A3B000000008D49FD1A00000000AE
:1026A0002DE9F04F8DB004462DF078FB10F0FF00BF
:1026B00013D1FF238DF829008DF827008DF82A30DB
:1026C0008DF828302AF0D6FFA94821462DF010FABF
:1026D0002DF026FB0DB0BDE8F08F2DF07FFB0546F9
:1026E0002DF0A2FC8DF827002DF0A8FC8DF8280015
:1026F0002DF0FEFE8DF829002DF0DCFE8DF82A006D
:102700002DF054FC06462DF035FCEDB207462AF0BC
:10271000B1FF002DD8D001201FF04EFD0546002846
:1027200000F0168195F8203003F00F03072B05F118
:10273000200900F0E1809DF82730002B3ED19DF864
:102740002980B8F1000F40F0F98042464FF0FF0AAF
:102750004146534620462BF047FD0028B4D09DF853
:10276000298095F82020616800238DF82B30F6B27F
:1027700002F00F03002948D0616891F82A108807F9
:1027800043D4072B40F0FC8094F820305A079BD0AC
:10279000A27D12F0010297D10DF12B010191CDF82C
:1027A00000A04B46012120462BF064FD002840F09C
:1027B0009E8095F8203003F00F0377E0A07D9DF810
:1027C0002810C0F3C0002AF0CDF89DF829809DF8AC
:1027D00027208246BCE7012B45D195F821200C2A01
:1027E000E7D195F82020CDF800A0194600230193E9
:1027F000D20905F1280320462BF07CFB002840F08D
:10280000CB8095F8203003F00F0363BB95F821309F
:102810009A1F1F2A43D8A27D02F02102202A08D144
:10282000D4F804B0BBF1000F00F0AE81063B1F2BC3
:1028300035D8636833B195F8203003F00F03072BC8
:102840007FF442AF9DF82B500097334652464146E5
:10285000204601952BF0BCFB00283FF435AF10302B
:102860007FF432AF36E7062BD0D04521D94011F0A6
:10287000010140F06781012B11D195F821300C2B1B
:1028800097D195F82020CDF800A00DF12B030193EE
:10289000D20905F1280320462BF02CFB38BB95F814
:1028A000203003F00F03072B3FF46EAF042B7FF4AF
:1028B0000BAF95F82130063B1F2B3FF605AFA37DEC
:1028C000DB077FF501AF2DF097FA95F820300278FD
:1028D000C3F38013B3EBD21F7FF4F6AE08300622A9
:1028E00005F1220140F01BFC00287FF4EDAE95F8C5
:1028F0002130002B9DD1E7E60DF12A0301930DF164
:10290000290300930DF127020AAB494620462CF01B
:10291000B1FA9DF827308346002B40F0F3809DF8F4
:102920002980B8F1000F40F005814FF0FF0ABBF19C
:10293000000F3FF416AF9DF8272009E79DF82A0005
:102940002AF082F89DF829809DF827208246FFE62C
:10295000084A0949094840F2C72335F016FB85F3B8
:102960001188BFF36F8F0323184602DFDAE600BF3A
:1029700071DC020018F4040064F40400F4B20400F2
:10298000A17D090740F1C980002B7FF424AF95F8A1
:102990002130063B1F2B82D804201FF00DFC00289D
:1029A0003FF492AE2DF080FCE36A064643B9238DD6
:1029B00040F2712202FB03F3B0FBF3F203FB1206B9
:1029C00023685A68BA4B0721A2FB030301FB0231BB
:1029D000B5A3D3E90023FDF701FEA0F2A2331F3B0C
:1029E00062EB0202B34272F10002FFF46DAE2DF011
:1029F000B3FA5046636829F091FF94F820305B06E3
:102A0000074640F11981002800F016818146012611
:102A10002DF0F2F9CDE902690BAB049305F1220325
:102A2000019395F82030C3F38013014606460093C6
:102A30000022012320462BF08BFC30462DF054F968
:102A40002DF098F9002840F0FD809A4821462DF09D
:102A50004FF8626892F82A3043F0010382F82A3076
:102A6000A37D43F08003A3751FF0C0FB1722027102
:102A70004FF6FF72C28095F820E081463346CEF3D0
:102A8000401E00F1200206F1200C1D68586899686C
:102A9000DE68D6601033634515605060916002F1C6
:102AA0001002F2D11B68136099F82030C9F8084071
:102AB0006EF3451389F820302DF0ACFBB8F1000F10
:102AC000C9F810000B9BC9F8143008BF4FF0FF0A7B
:102AD00089F819A094F8203013F0400302D03B1E6F
:102AE00018BF012399F81A2063F3000289F81A200D
:102AF0001FF07CFB4946C9F80C00D9F800001FF014
:102B00009FFBE7E5A07D9DF82810C0F3C00029F0E9
:102B100029FF9DF82980824609E7BAF1FF0F8DF859
:102B20002CA0C2F3801B10D094F8212052453FF412
:102B30002BAF6AE69DF82A0029F086FF9DF82980D0
:102B40008246F4E695F8213070E605F122010BAAE1
:102B5000584607912AF036F8079900283FF451AEFD
:102B600094F82030C3F340135B457FF44AAE06224D
:102B700004F1080040F0D3FA00287FF442AE95F843
:102B8000203003F00F03FFE696202DF06DFA584633
:102B90002DF03AF9CDE9007B3346414652462046B6
:102BA0002BF016FA00287FF48FAD2DF025F906469C
:102BB0000322337862F30303337095F820303278C0
:102BC000C3F3801363F3C7120C2332705046737043
:102BD00029F0A4FE94F82020570643D5002841D0C0
:102BE0003178324641F0400102F8021B0168C6F814
:102BF000021083889380D5F82230B360EB8CB381C8
:102C000030462DF071F82DF0B5F800283AD12DF0AE
:102C100043FBA37D43F00103A37595F8203019070A
:102C200005D194F8203043F0080384F8203022487E
:102C300021462CF05DFF4DE5A67D04F12209C6F387
:102C40008016E5E61D4A1E491E4840F2AF4335F0A6
:102C50009CF9002383F31188BFF36F8F0323184679
:102C600002DFF2E6A37D3278C3F3801363F38612AA
:102C7000334603F8022BD4F82220C6F80220E28C57
:102C80009A80B8E70D4A0E490E4840F2335335F0AA
:102C90007CF9002383F31188BFF36F8F0323184659
:102CA00002DFB4E7AFF3008000CA9A3B00000000E7
:102CB0008D49FD1A5DDD020085DC020018F4040078
:102CC000A0F40400F4B204002DE9F047C46882B017
:102CD00007460DF10201204622F07CFE90F91630E5
:102CE000002BC0F2FF8043680646002B40F0EF80C7
:102CF0002379974A6FF386132371002515802CF0F2
:102D000039FF28462CF08CFF6079012100F0070084
:102D10002CF078FF62799200FF2102F01C0208205B
:102D20002CF0B2FF01201FF047FA0546002800F002
:102D3000BF8005F120002CF0D1FF864B019301A844
:102D40002CF08EFF844940F25B602DF03BF8207937
:102D500000F03F002AF034FC214680482CF0C8FEE9
:102D600096202DF081F9627902F0070201231046C6
:102D700000212DF091F829F081FF002852D1B37D78
:102D800013F0180F7CD1D4F800903D6848462AF023
:102D900003FC05EB00087A6808F10E0100202DF015
:102DA0006FF905466079D4F808A000F0070001210A
:102DB0002CF0A8FF0544607900F007000228554474
:102DC0002ED004280CBF4FF4BC73282301211D44CE
:102DD0002CF09AFF28442DF031FA2DF05DFA2DF0F9
:102DE000CBF8204622F0ECFDC11C4246C9B2484651
:102DF0002AF0D4FB054600287BD1736843B1584BB9
:102E0000FE60012202219F601CF04AFE002840D192
:102E100020462AF05BFB18BB002002B0BDE8F0871B
:102E20001823D3E7B07DC0F3C00029F009FB0546A5
:102E30000DF1030029F08CFD69788046AA1C2878E2
:102E40002DF0BEF862799DF80300C2F302029200F1
:102E500042F00202414602F01E022DF0E3FA92E730
:102E6000404A4149414840F26E2335F08EF8002334
:102E700083F31188BFF36F8F0323184602DFCBE77C
:102E8000012029F0DDFA4178821C00782DF098F8B5
:102E900079E7344A3449354840F2692335F075F80A
:102EA00085F31188BFF36F8F0323184602DFAFE766
:102EB0002C4A2F492D484FF4FA7335F066F885F304
:102EC0001188BFF36F8F0323184602DF31E7436891
:102ED00093F82A30DA0705D4436893F82A309B0721
:102EE0007FF506AF234821462CF002FE2CF018FF98
:102EF00092E71C4A20491D4840F24F2335F045F81F
:102F00001E4B0721A5FB030301FB05310EA3D3E9EB
:102F10000023FDF763FB1A4902461A4835F035F8DD
:102F2000002585F31188BFF36F8F0323184602DF56
:102F3000154821462CF0DCFD2CF0F2FE6FF08B00E2
:102F40006BE700BFAFF3008000CA9A3B00000000AF
:102F50000C770020D6BE898E5555550005EF02002E
:102F600088050020D4F40400ECE30400F4B204006B
:102F700064F4040075E9020078FA04008D49FD1A32
:102F800078F504006CF404008DE4020000000000F9
:102F90002DE9F04F8FB005460E4617462CF0FEFE89
:102FA00010F0FF0015D1FF238DF831008DF82F00B0
:102FB0008DF832308DF830302AF052FB002E5AD086
:102FC0007D4831462CF094FD2CF0AAFE0FB0BDE8F0
:102FD000F08F2CF003FF04462DF026F88DF82F001B
:102FE0002DF02CF88DF830002DF082FA8DF831009C
:102FF0002DF060FA8DF832002CF0D8FFC3B20893A0
:103000002CF0B8FFE4B281462AF02AFB8CB30320EF
:103010001FF0D2F8044660B390F8203003F00F039D
:10302000072B00F1200A24D190F821300BB30DF1C9
:10303000320301930DF1310300930DF12F020CAB1C
:10304000514628462BF016FF9DF82F200346002AF4
:1030500040F0A0819DF831B0BBF1000F40F0C0817D
:103060004FF0FF084BB34346594628462BF0BCF8B7
:1030700018BB002EA4D195F82030D90640F18581E7
:103080001FF0B4F80446002800F0B8820A23237128
:10309000A560AB692068E36021461FF0D1F895F880
:1030A0002030DA0640F171816FF30413434885F84C
:1030B000203029462CF01CFD86E76B6800228DF835
:1030C00033202BB16B6893F82A1011F002017BD0EA
:1030D0006B68002B00F071816B68002BC9D1002E4A
:1030E00000F0A78133791B0612D4AB691BB193F9A9
:1030F0000430002B0CDB0DF1330300220193CDF8DB
:1031000000805346114628462BF0B4F80028B0D072
:10311000A6603379A27EC3F3801363F30412A27610
:10312000337943F0800333710023AB611FF05EF805
:103130002DF070F820612DF0B7F849460790384619
:103140002CF0E2FD079B1B1A6361A37E69F38203E7
:10315000A376089B002B40F02C817F20A37E9DF856
:1031600033202076BBF1000F03F0F70308BF4FF0C8
:10317000FF0862F3410384F81980A376002E00F063
:1031800039810F4B00964A46394650462BF0C2FD16
:10319000A37E092260F3C713A3762068227121461B
:1031A0001FF04EF894F91A30002BFFF60FAF054AC6
:1031B00013880133138003E78DE40200B5E10200B8
:1031C000A1EA02000C77002094F8223058067FF51F
:1031D0007FAFCDE900815346012228462BF04AF803
:1031E00000283FF475AF002E00F0178204201EF077
:1031F000E3FF00283FF4E4AE08962DF055F8EB6AA3
:10320000824643B92B8D40F2712202FB03F3B0FBDF
:10321000F3F203FB120A2B689F485A6807F0030376
:1032200003F12B011733C7F3400CC900DB0021FA6F
:103230000CF123FA0CF3DFF864C20B44ACEB03038C
:10324000A2FB00010793072303FB021190A3D3E91C
:103250000023FDF7C3F9079B0344B3F11F0263EB9F
:103260000303524573F10003FFF403AF404629F016
:1032700055FB95F8203009905A0640F1DF8100286F
:1032800000F0DC8107904FF0010A2CF0B5FD079BA0
:103290000DAACDE902A3049204F12402019294F84C
:1032A0002020C2F38012014682464B4600922846F7
:1032B0003A462BF04DF850462CF016FD2CF05AFDF6
:1032C000002840F0D9812CF0E7FF96202CF0CCFEAE
:1032D00038462CF099FD089971482CF009FC6A6871
:1032E00092F82A3043F0010382F82A30AB7D43F094
:1032F0008003AB751EF07AFF172202714FF6FF7242
:10330000C2800446534600F120020AF1200E1F68D5
:1033100058689968D3F80CC0C2F80CC010337345D4
:1033200017605060916002F11002F0D11B681360C9
:1033300094F82030A56043F0200384F820302CF06E
:1033400069FFBBF1000F0D9B206108BF4FF0FF0824
:1033500084F81980636195F8203013F0400303D09E
:10336000099B003B18BF0123A27E63F30002A276F3
:103370001EF03CFF089BE060DC60002E7FF426AE70
:10338000484A13880133138020E6A96946482CF087
:10339000AFFB19E60990A87D9DF830100792C0F3A5
:1033A000C00029F0DFFA9DF831B0079A099B8046EA
:1033B00058E62CF0EBFDC0B2D0E6AB7D9B067FF566
:1033C0008BAE002E74D03379580600F10B8194F83F
:1033D00022207F2A79D86A68002A3FF484AEEFE57C
:1033E00009909DF83200079229F02EFB079A099B5D
:1033F000804637E62D4B00954A46394650462BF01D
:1034000089FCA37E092260F3C713A376206822718A
:1034100021461EF015FF94F91A30002B80F2168118
:1034200095F8203043F0100385F820300FB0BDE848
:10343000F08FAB691BB193F90430002B16DB0DF153
:10344000330300220193CDF80080534611462846ED
:103450002AF010FF00283FF40EAEAB6933B995F89F
:103460002030D8063FF50CAE00218FE7A560AB6990
:10347000E3601B79A27EC3F3801363F30412A27688
:10348000AA69137943F0800313714FE6AFF300800C
:1034900000CA9A3B000000008D49FD1A28FDFFFF7D
:1034A00059E602000C7700208DE40200A1EA020038
:1034B000AA69002A00F0BD80137959063FF50CAEC9
:1034C00094F822307F2B7FF607AE0DF133030022F4
:1034D0000193CDF800805346114628462AF0CAFED3
:1034E00000283FF4F9AD04201EF066FE00283FF4EA
:1034F000C0AD96202CF0B8FD38462CF085FC2CF0A1
:103500007BFC0378032262F30303037094F82030FA
:103510000278C3F3801363F3C7120C230270437065
:103520008246404629F0FAF995F820305A0640F1D3
:103530009280002800F08F809AF80020534642F0D5
:10354000400203F8022B0268CAF8022082889A809F
:10355000636ACAF80830238DAAF80C3050462CF064
:10356000C3FB2CF007FC002840F096802CF094FE62
:103570001EF03CFE09232371002E00F0A180574865
:10358000A66031462CF0B4FA337943F0400333712E
:103590002CF040FE20612CF087FE49460546384657
:1035A0002CF0B2FB089B2D1A6561002B40F0848043
:1035B0007F21A27E9DF83330217602F065025B0008
:1035C000BBF1000F42F0080223F07D0308BF4FF06B
:1035D000FF081343206884F81980A37621461EF063
:1035E0002FFEF3E4AA69002A7FF466AF6A68002A16
:1035F0007FF4E6AC1B067FF57EAD89E5384A394994
:10360000394840F2773334F0C0FC84F31188BFF3BB
:103610006F8F0323184602DF38E5AB690893002B50
:103620003FF41DAF04201EF0C7FD00287FF4E5AD78
:1036300021E56B68002B3FF402AF1CE595F816A05E
:1036400005F12203CAF3801A07931EE6274A13885E
:103650000133138023E5AB7D9AF80020C3F3801378
:1036600063F38612534603F8022BD5F82220CAF8DA
:103670000220EA8C9A806BE7194A1D491A484FF4D8
:10368000816334F082FC002383F31188BFF36F8FD2
:103690000323184602DF16E6114A1549124840F284
:1036A0009E4334F072FC002383F31188BFF36F8FC5
:1036B0000323184602DF59E72CF068FCC1B278E713
:1036C000A560AB69E3600B4821462CF011FAAA69AA
:1036D000137943F0400313715AE700BF09E6020073
:1036E000D4F40400B4F40400F4B204000C77002015
:1036F000A0F40400B9E50200F0B5C468A28A4FF650
:10370000FF739A4285B000F08F8005462BF068FC6D
:103710002B89628B208CA3831A4492B2104494F8B4
:103720002730E28380B2411C21845E064FF0000105
:10373000618304F1220160D403F03F000B4694F84A
:103740002810009004F1290028F03EF90646204692
:1037500003A92BF0C1FD039B94F862101A7861F362
:10376000C3021A70039A94F862301178C3F34003CD
:1037700063F3820111702CF0FDF900202CF050FA57
:10378000201D2CF06DFA2389A17A40F25B6043EA98
:1037900001412CF017FB304629F012FF0399204617
:1037A0002BF06EFD21463A482CF0A2F9E0892CF06E
:1037B0005BFC94F84B0000F007002CF025FB276819
:1037C0002E68384629F0E8FE06446A6806F10E01C4
:1037D00001202CF055FC2CF05FFDA18A043132460B
:1037E000C9B2384629F0DAFE054620BB204629F04A
:1037F0006DFE50B9002005B0F0BD0A4603F03F034E
:10380000218D28F02DF90646A1E7224A22492348B6
:103810004FF4827334F0B9FB85F31188BFF36F8FD7
:103820000323184602DFE5E71D4821462CF060F926
:103830002CF076FADEE7174A1A491848FA2334F0D2
:10384000A4FB194B0721A5FB030301FB05310EA3C4
:10385000D3E90023FCF7C2FE14490246144834F0B1
:1038600094FB002585F31188BFF36F8F032318465F
:1038700002DF104821462CF03BF92CF051FA6FF092
:103880008B00B8E7AFF3008000CA9A3B000000004D
:10389000B5F1020004F60400ECE30400F4B2040005
:1038A0002DD7020078FA04008D49FD1A54F6040061
:1038B0006CF4040009D7020038B5836805699C6977
:1038C0007CB112F4000F06D02D6801238B401D42FD
:1038D00001D082F0C062044B134002F0B072A047E6
:1038E00038BD6FF05700FBE74000000608B5044AFA
:1038F0000321044835F0F6FC04F000FD08BD00BFCC
:10390000283B04000039040008B5034A022103489B
:1039100035F0E8FC08BD00BF483B04000039040056
:1039200008B5044A0321044835F0DCFC04F03CFDF2
:1039300008BD00BF703B04000039040008B5044A0C
:103940000321044835F0CEFC04F084FD08BD00BF1F
:10395000903B04000039040038B571483EF0CFFBBD
:10396000002800F084806E483EF0C9FB002800F07B
:1039700086806B483EF0C3FB002800F088804FF43F
:103980008031684833F099FF0446002840F0878072
:103990004FF48031644833F090FF0446002840F033
:1039A00086804FF48031614833F087FF0446002859
:1039B00040F084804FF0B8620D215948FFF77CFF3A
:1039C0000446002840F081804FF0B8620E21544830
:1039D000FFF772FF044600287ED14FF0B8620F2136
:1039E0004F48FFF769FF044600287CD14C483EF061
:1039F00086FB00287ED04FF480314D4833F05DFFC8
:103A0000044600287ED14FF0B86210214448FFF7E9
:103A100053FF044600287CD14649474B4B604FF486
:103A200080338B603E4D284633F052FF4349444B70
:103A30004B604FF400538B60284633F049FF4149F7
:103A4000414B4B604FF480438B60284633F040FF7E
:103A50003E493F4B4B604FF400438B60284633F0A8
:103A600037FF3C4A03213C4835F03CFC1DE03B4A13
:103A70000121394835F036FC6FF0120415E0384A60
:103A80000121354835F02EFC6FF012040DE0354A67
:103A90000121314835F026FC6FF0120405E00346A1
:103AA000314A01212C4835F027FC204638BD034619
:103AB0002E4A0121284835F01FFCF6E703462C4A20
:103AC0000121254835F018FCEFE70346294A01217A
:103AD000214835F011FCE8E70346274A01211E483A
:103AE00035F00AFCE1E70346244A01211A4835F083
:103AF00003FCDAE7224A0121174835F0F3FB6FF0A7
:103B00001204D2E703461F4A0121134835F0F4FBA3
:103B1000CBE703461C4A01210F4835F0EDFBC4E713
:103B20008C330400F43E0400EC3E0400E43E040048
:103B3000DC3E04003C3E00203D390000303E0020C9
:103B4000ED380000243E002021390000183E0020FE
:103B500009390000803D040000390400B03B040036
:103B6000CC3B0400E83B0400043C04002C3C040073
:103B7000543C04007C3C0400AC3C0400DC3C0400ED
:103B80000C3D0400283D0400503D040010B508F031
:103B9000C5FC00BB35F00FFD034618BB02F03EF834
:103BA000044628BB02F05AFD044648BB03F0B2F8B5
:103BB000044660BB06F094FA044678BBFFF7CCFEDF
:103BC000044690BB1C480CF08DF84FF400400021D7
:103BD0003FF03EF8F9E70346184A0121184835F04E
:103BE0008BFBD7E7174A0121154835F085FBD5E750
:103BF0000346154A0121124835F07EFB204610BDD0
:103C00000346124A01210E4835F076FBF6E70346DB
:103C10000F4A01210A4835F06FFBEFE703460D4AD2
:103C20000121074835F068FBE8E703460A4A01210D
:103C3000034835F061FBE1E7CD4F0000EC3D0400A7
:103C4000003904000C3E04002C3E0400503E0400E9
:103C5000743E04009C3E0400C03E040010282AD894
:103C6000DFE800F0092B0B0D0F11131517191B1DA1
:103C70001F21232527001248704712487047124819
:103C800070471248704712487047124870471248F0
:103C900070471248704712487047124870471248E0
:103CA00070471248704712487047124870471248D0
:103CB000704712487047124870471248704700BF5B
:103CC000043F0400383F0400503F0400683F0400F4
:103CD000803F0400943F0400A83F0400C03F04005C
:103CE000D83F0400F03F04000840040020400400D6
:103CF00038400400544004006C4004008440040038
:103D00009C400400203F040038B50D4604F0A2FE9C
:103D10000446ADB103230372037CD3B10378104A88
:103D20000321104835F0E8FA35F050FC04F02EFE7F
:103D30000D4B186804F0FEFD207804F0E5F938BD5D
:103D400003780A4A0121074835F0D6FA0023237286
:103D5000F5E70378064A0221024835F0CDFAEBE791
:103D6000E0400400B8370400B43E0020AC4004003A
:103D70001C410400F0B58BB004460D46164603788E
:103D8000032B38D8DFE803F002212B311D4B93E8D9
:103D900003000790ADF82010090C8DF8221063790C
:103DA0002279E178A07867780DF11C0CCDF814C069
:103DB00004970390029101920093A379124A31462D
:103DC000284633F063FA0BB0F0BD104B93E80300C4
:103DD0000790ADF82010090C8DF82210DFE70C4A8F
:103DE00007AB07CA03C31A80D9E70A4A07AB07CA59
:103DF00003C31A80D3E7084A0A2107A833F046FA1A
:103E0000CDE700BF64410400744104006C4104002C
:103E100098410400A44104009CD7040008B5084A56
:103E20000221084835F05EFA0FF0CCFA00B908BD5F
:103E30000346054A0121034835F05EFAF7E700BF63
:103E4000B0410400B8370400E4410400F0B593B079
:103E500000AF04460E461D461E2207F12801FFF75B
:103E600089FF0022FA603A617A61BA61FA613A62C6
:103E7000C7F823202068F860A188A3793982BB7431
:103E8000FE743A83C7F81B20C7F81F2007F10C0205
:103E90003849284609F032FFBB7E2BB9FB7E002B48
:103EA00061D14C37BD46F0BD97F9131007F10C00F6
:103EB00004F096FE0028F1DA6D4600233B720223DF
:103EC0007B728AB06C4614F1100217D012261AB118
:103ED000042E01DD284B636100233B7102237B71BB
:103EE000CAB13346082E02DD07F12801A1610C2B6F
:103EF00000DDE06104F1200300210AE06FF00046DC
:103F0000E5E701F14800384410F8440C03F8010BD0
:103F100001310129F5D9112E22DD122342B10421EC
:103F2000397200217972B9720121F972B868206181
:103F300000216FF300016FF341016FF382016FF312
:103F4000C501012060F38811C3F30A0363F3532111
:103F50006FF31F510023094807F02AFDAD46A0E783
:103F60006FF01B03DAE707F11B0107F10C0004F007
:103F70008FFF96E7813F00000C420400B837040031
:103F80002DE9F0438DB000AF04460E461E2207F126
:103F900010013046FFF7EEFE2378092B06D9162BC9
:103FA00006D16378012B03D9002537E0082B6FD2A7
:103FB00001203437BD46BDE8F0836FF0004C47E088
:103FC00000233B7002237B70002A49D1BCF10D0F06
:103FD0005BDD0E2342B10320387100207871B87187
:103FE0000120F871786808616FF300086FF34108E9
:103FF0006FF382086FF3C508032161F38818C3F3D8
:104000000A0363F353286FF31F58002341462A48DD
:1040100007F0CEFCCD460123B37302356378023B33
:104020009D42C5D863685A1952785B5D43EA022302
:104030001BB213F5817FF0D1E94600233B710223C7
:104040007B7188B0694611F11002B6D04FF00E0CAA
:10405000002AB5D0BCF1040FB2DD184B4B61AFE7BD
:10406000BCF1080F02DD07F110038B6101F11C03A5
:10407000002007E000F1300EBE441EF830EC03F8DB
:1040800001EB01300128F5D9A0E76FF01B03A1E790
:1040900000257D60BD60FD6062780B2A28BF0B2281
:1040A0006168381D3FF072F8304600F80F5F0B2250
:1040B000391D3FF044F87BE7B8370400384204006C
:1040C00030B587B01A4B834228D01A4B1D6805F5CE
:1040D000F2752B78184A0321184835F00DF9184C61
:1040E000EC4694E80F008CE80F0004AB103494E821
:1040F000030083E80300194660460FF0DFF803462B
:1041000078B9287800EB40004FF4003200230D49C5
:1041100001EB001032F024F807B030BD054B1D68EC
:10412000D7E7094A0121054835F0E6F8F4E700BF72
:10413000280C0020303F002064420400B8370400FF
:10414000603A0400C80B00208842040048B108B55A
:10415000014603781BB903483EF049F808BD024800
:10416000FAE77047280700204407002070B504468E
:1041700000EB8003104E06EB83064FF0FF324FF04A
:10418000FF33304631F0CEFC0C4B53F8345045B180
:104190002A6843F8342003EBC4035B689D4205D0D2
:1041A000043D304631F03EFD284670BD034B03EB25
:1041B000C4035A60F4E700BF7C3E0020A43E002008
:1041C000B0B582B000AF04464378102B00F29A805D
:1041D000DFE803F009154B50555B60656A6F747931
:1041E0007E83888E9300007800EB4000002200233D
:1041F000654901EB001031F0B3FF0025BDE0007808
:1042000033F0DBFB0546002D00F0B7806078FFF748
:1042100025FD21786C4600233B7102237B718AB017
:10422000EC461CF1100275D04FF0160E2AB1BEF10B
:10423000040F02DD554BCCF8143000233B700223F1
:104240007B70002A73D07346BEF1080F01DDCCF8F5
:1042500018000C2B01DDCCF81C50102B01DDCCF824
:1042600020100CF1240300215FE0007833F080FB84
:104270000546C8E7007833F082FB0546C3E781783E
:10428000007833F083FB0546BDE7007833F087FB09
:104290000546B8E7007833F089FB0546B3E70078B8
:1042A00033F058FB0546AEE7007833F05AFB05467D
:1042B000A9E7007802F00AF80546A4E7007802F0C2
:1042C000E9F805469FE7007802F016FD05469AE7F3
:1042D000007805F0BFFC054695E7007805F024FD61
:1042E000054690E78178007805F08EFD05468AE75F
:1042F000007805F017FE054685E7007805F084FE96
:10430000054680E7224A0121224834F0F5FF6FF08C
:1043100015057BE76FF0004E88E701F1080038448F
:1043200010F8080C03F8010B01310129F5D9BEF191
:10433000150F26DD16234AB1052139710021797147
:10434000B9710121F9717868CCF8100000216FF380
:1043500000016FF341016FF382016FF3C50101208A
:1043600060F38811C3F30A0363F353216FF31F5102
:104370000023084807F01CFBA54628460837BD4621
:10438000B0BD6FF01B03D6E7680B0020CC420400E1
:10439000AC420400B83704002DE9F04784B002AF06
:1043A0000646524BD3F800804FF4F27400FB04F43D
:1043B00008EB040918F80400FFF7D8FEB0B1054671
:1043C000C9F8E00118F80430494A0121D154FFF737
:1043D000F7FE824670B9287800EB40004FF4F022D7
:1043E0000023444901EB001031F0BAFE0837BD4606
:1043F000BDE8F087009603463F4A01213F4834F06C
:1044000086FF1AF1100F04D018F80400FFF7C4FF5C
:10441000ECE7D9F8E0315878FFF720FCEA460023B2
:104420003B7102237B718AB00DF1080C1CF1100264
:1044300025D04FF0120E2AB1BEF1040F02DD304B31
:10444000CCF8143000233B7002237B70D2B173464A
:10445000BEF1080F01DDCCF818000C2B01DDCCF803
:104460001C600CF12003002101290BD801F1080088
:10447000384410F8080C03F8010B0131F4E76FF031
:10448000004ED8E7BEF1110F2DDD12234AB10421F1
:10449000397100217971B9710121F9717868CCF80D
:1044A000100000216FF300016FF341016FF38201EF
:1044B0006FF3C501022060F38811C3F30A0363F3AD
:1044C00053216FF31F5100230C4807F071FAD546B2
:1044D0002846FFF73BFE0023C9F8E03118F8042016
:1044E00003498B5490E76FF01B03CFE7303F002068
:1044F000483E0020080B00200C430400B83704009D
:104500004443040010B5154B834219D0144B1C686A
:1045100004F5F274D4F8E031ABB15B78114A0121B3
:10452000114834F0E9FED4F8E001FFF70FFE002354
:10453000C4F8E03120780D4A1354FFF72DFF10BD69
:10454000074B1C68E6E70A4A0221074834F0CAFE16
:104550002378064A0021D154F1E700BF080B002060
:10456000303F0020A0430400B8370400483E00203C
:104570008043040070B5002427E0164B002543F863
:10458000345003EBC4035D6004EB84039800124BCA
:1045900018443DF0ADFE660004EB4403D8000F4B19
:1045A0001844012229463DF0C1FF33191A010C4974
:1045B0000C4810443EF03EF90B4B1B684FF4F2726E
:1045C00002FB0433C3F8E0510134012CD5DD002097
:1045D00070BD00BFA43E00207C3E00204C3E002069
:1045E00005450000080B0020303F002010B582B0C8
:1045F000044660B90B480022002301A931F06CF990
:1046000038B9019800230360436002B010BD06482A
:10461000F1E72346054A0121054834F06DFE0020EC
:10462000F3E700BF2807002044070020CC43040024
:10463000B837040000284AD038B50D460446007843
:1046400000EB8000234B03EB80004FF0FF324FF074
:10465000FF3331F067FA1DB3224612F8041B1E4BDC
:1046600053F83100606043F8312003EBC1035B680D
:104670008BB1207800EB8000164B03EB800031F00B
:10468000D1FA207800EB4000144B03EBC00031F06E
:1046900059FB002038BD104B03EBC1035A60E8E71B
:1046A000234613F8041B002262600B4A02EBC1028E
:1046B00052682AB11360084A02EBC1025360D8E77E
:1046C000054A02EBC100436042F83130D1E76FF098
:1046D000150070477C3E0020A43E00204C3E002088
:1046E00008B50B4A03210B4834F0FCFD4FF0FF32B4
:1046F0004FF0FF33084831F06DFB084B1B68D3F8CF
:10470000E031002BF2D10020FFF746FEEEE700BFBC
:1047100008440400B83704004C3E0020303F00201D
:1047200008B50B4A03210B4834F0DCFD4FF0FF3293
:104730004FF0FF33084831F04DFB084B1B68D3F8AE
:10474000C433002BF2D10120FFF726FEEEE700BFB5
:1047500028440400B8370400643E0020303F0020A5
:1047600038B5044604F076F970B105460378104A6E
:104770000321104834F0C0FD1321204636F0F0FB31
:10478000044648B9204638BD0B4A0121094834F097
:10479000A9FD6FF01504F5E72B78084A02210548BA
:1047A00034F0AAFD14F1800FECD10124EAE700BF38
:1047B00078440400B837040048440400A0440400CE
:1047C00030B583B004460D4604F044F903780093F5
:1047D0002B46054A0121054834F099FD2046FFF794
:1047E000BFFF03B030BD00BFD0440400B8370400A1
:1047F00000B585B00DF014FAA0B904F057FD01AB77
:104800000F4A07CA83E807000E4918460DF0C0F9A1
:10481000034670B90C4A03210C4834F063FD05B01F
:104820005DF804FB03460A4A0121084834F064FDA0
:10483000F5E7084A0121054834F05EFDEFE700BFC7
:10484000783A04004D3E000040450400B8370400AB
:10485000F44404001C45040008B50DF0E1F928B942
:10486000064A0321064834F03DFD08BD0346054ACB
:104870000121034834F040FDF7E700BF7445040010
:10488000B83704005445040038B52C480EF06EFECD
:10489000FFF770FE0446F0B10346294A012129487A
:1048A00034F02AFD2DE0650004EB44002649274B37
:1048B00003EB00103DF0BEFF28192549254B03EB03
:1048C00000103DF0B7FF25442349244800EB0510B4
:1048D0003DF0B0FF0134012CE5DD04F079F8044629
:1048E00088B9352101203EF0EFFB1D4B186088B1DF
:1048F00004F020F80446C8B91A4A0321114834F0DC
:10490000F1FC204638BD0346174A01210D4834F01A
:10491000F3FCF6E7154A01210A4834F0E3FC144B96
:1049200018683EF0C8FB6FF00B04EAE70346114A33
:104930000121044834F0E0FCE3E700BFB8010020A7
:1049400084450400B83704006D560000680B002051
:10495000C1400000280C00201D3E0000C80B0020B4
:10496000B43E002030460400A4450400CC450400B9
:10497000303F0020FC450400B0B58AB000AF04F021
:10498000E9FD90B304460BF0FFFC04F1090528464D
:104990000BF0C0FC034610B110F1780F2DD11E2290
:1049A00007F108012846FFF7E5F96D4600233B7142
:1049B00002237B7188B0EC461CF1100223D00E203C
:1049C00022B1042802DD334BCCF8143000233B70B5
:1049D00002237B7022B3082803DD07F10803CCF81B
:1049E00018300CF11C03002118E02B4A01212B4840
:1049F00034F078FC6FF0150046E0294A0121274881
:104A000034F07AFCCBE76FF00040D9E701F1280ED3
:104A1000BE441EF828EC03F801EB01310129F5D959
:104A20000D2834DD0E234AB103213971002179713B
:104A3000B9710121F9717868CCF8100000216FF389
:104A400000016FF341016FF382016FF3C501032091
:104A500060F38811C3F30A0363F353216FF31F510B
:104A600000230E4806F0A4FFAD46237A0BB90123BC
:104A70002372207800EB400000220023094901EB5B
:104A8000001031F06DFB00202837BD46B0BD6FF03F
:104A90001B03C8E7B046040058460400B8370400BA
:104AA0007C460400280C002038B50D46174B1C68C6
:104AB0004FF4F27303FB0044084604F0C5FB98B1C1
:104AC0000346027FCAB104F109001A68C4F809203C
:104AD0009A889B79A4F80D20837101232374002305
:104AE0002372FFF749FF38BD2B46094A01210948C7
:104AF00034F002FC6FF01500F5E7074A0121054884
:104B000034F0F0FB6FF01500EDE700BF303F002000
:104B1000D4460400B8370400F44604002DE9F043FD
:104B200093B000AF734B1D684FF4F27400FB04F4B4
:104B300015EB04087CD006466F4B1A681A2300FB5D
:104B400003F302EB030E07F10C0CD058DEF804104F
:104B5000DEF80820DEF80C30ACE80F00DEF81000BC
:104B6000DEF81410ACE80300BEF81830ACF80030E2
:104B70000722624907F10C003EF0D1FA00285FD00D
:104B80001E2207F1280107F10C00FFF7F3F84FF49C
:104B9000F272002140463EF0BAFA08F10909F868BD
:104BA000C8F809003A8ABB7CA8F80D2089F80630BD
:104BB0002E55042388F808301E2207F128014846A4
:104BC000FFF7D8F80BF0E0FB48460BF0A3FB0346D9
:104BD00010B110F1780F3CD11E2207F12801484690
:104BE000FFF7C8F84FF461700AF00EFA0346B0BB45
:104BF0006E4600233B7202237B7288B0EC461CF1A8
:104C0000100232D00E2022B1042802DD3C4BCCF839
:104C1000143000233B7102237B719AB3082803DD13
:104C200007F12803CCF818300CF11C03002127E011
:104C3000344A0121344834F055FB6FF0150051E03F
:104C40003346324A0121304834F056FB6FF01500EC
:104C500048E02F4A01212C4834F04EFBC2E72D4A90
:104C60000221294834F048FBC2E76FF00040CAE750
:104C700001F1480EBE441EF844EC03F801EB01318B
:104C80000129F5D90D2831DD0E234AB103213972EE
:104C900000217972B9720121F972B868CCF810005C
:104CA00000216FF300016FF341016FF382016FF395
:104CB000C501032060F38811C3F30A0363F3532192
:104CC0006FF31F510023104806F072FEB546285DB1
:104CD00000EB4000002200230F4901EB001031F0EF
:104CE0003FFA00204C37BD46BDE8F0836FF01B0350
:104CF000CBE700BF303F0020B43E002038AE0400B8
:104D0000B046040014470400B83704003C470400D0
:104D10007C46040074470400280C0020F0B583B0E2
:104D20000446114B1F684FF4F27500FB05F57E1920
:104D300003460E4A03210E4834F0DEFA0423337290
:104D40007068FFF70DFD08B903B0F0BD064600948A
:104D50000346084A0221064834F0D9FA012EF3D15D
:104D6000785DFFF7DBFEEFE7303F00209847040057
:104D7000B8370400D04704002DE9F04194B002AFE9
:104D800006460D4603F066FE0446304636F0D2F97C
:104D90001E2207F12801FEF7EDFF94F800C06E46D1
:104DA00000233B7202237B728AB002AB13F1100224
:104DB0001DD016211AB1042901DD7B48586100205D
:104DC0003871022078710AB30846082903DD07F11B
:104DD000280EC3F818E00C2800DDDD61102801DD85
:104DE000C3F820C003F124004FF0000C0BE06FF07B
:104DF0000041DFE70CF1480EBE441EF844EC00F819
:104E000001EB0CF1010CBCF1010FF3D9152944DDC4
:104E10004FF0160C42B10521397200217972B97236
:104E20000121F972B868186100216FF300016FF376
:104E300041016FF382016FF3C501032363F388110E
:104E4000CCF30A0C6CF353216FF31F510023574826
:104E500006F0AEFDB54660680DF094FD002363607A
:104E6000637CEBB9A37CFBB9237D0BBB162D01D072
:104E70003E2D21D1237A022B29D0042B00F08980EA
:104E8000227800924A4A0221484834F040FA00232E
:104E900023724837BD46BDE8F0816FF01B0CB9E7BF
:104EA000207800F0D7FEDDE7207801F083FBDBE718
:104EB000207805F031F9D9E7237800932B463D4A55
:104EC00002213A4834F023FA00232372E1E72378E1
:104ED000394A0221354834F00FFA002004F0B4F9C1
:104EE000054658B3037F012B2FD904F10906072289
:104EF000014630463EF013F970B305F1070807226A
:104F0000414630463EF00BF900283BD11E2207F106
:104F100028013046FEF72EFF1E2207F10801404609
:104F2000FEF728FF2B68C4F80930AA88AB79B28055
:104F3000B37104F10900FFF71FFDAAE723781F4AA8
:104F400001211A4834F0D8F9A3E723781C4A02213A
:104F5000164834F0D1F9ECE71E2207F1280130465B
:104F6000FEF708FF1E2207F108012846FEF702FFA0
:104F7000D5F80730C4F80930B5F80B206B7BB28048
:104F8000B371D6E723780F4A0121084834F0B4F909
:104F90007FE723780C4A0321044834F0ADF92078E8
:104FA000FFF7BCFD75E700BF0C480400B8370400EC
:104FB000F04904004848040084480400B84804004C
:104FC0000449040064490400B849040008B590B9D4
:104FD000124A0321124834F085F9124807F096F876
:104FE000034678B90BF0D0F9FFF74EFC034678B9C9
:104FF00003F034F808BD03460B4A0121084834F099
:105000007BF9F7E7094A0221054834F075F9E9E729
:10501000074A0121024834F06FF9EBE7484A0400DF
:10502000B8370400604A0400284A0400644A0400B7
:10503000884A0400F0B58BB000AF06460D4603F079
:1050400009FD0446002845D0002D46D1207800EB0C
:1050500040004A4B03EB00103DF03CFC304636F07C
:1050600069F805461E2207F10801FEF783FE304667
:1050700035F008FF60602B68C4F80930AA88AB7966
:10508000A4F80D20E373237A012B39D021786E46E2
:1050900000233B7102237B718AB06D4615F110022B
:1050A00031D012201AB1042801DD354B6B61002389
:1050B0003B7002237B709AB30346082803DD07F197
:1050C000080CC5F818C00C2B00DDE96105F12003C0
:1050D000002123E02B4B1C68B6E72B462A4A01210E
:1050E0002A4834F009F9002323720EF06BF9207876
:1050F00000EB4000214B03EB00103DF0EBFB36E0F2
:105100000523237230E06FF00040CBE701F1280C5B
:10511000BC441CF828CC03F801CB01310129F5D996
:10512000112827DD122342B1042139710021797140
:10513000B9710121F9717868286100216FF30001CC
:105140006FF341016FF382016FF3C501032060F338
:105150008811C3F30A0363F353216FF31F51002334
:105160000A4806F025FCB546207832F0BBFB2C3708
:10517000BD46F0BD6FF01B03D5E700BFC80B002094
:10518000CC4A0400303F0020AC4A0400B837040089
:1051900070B50D46094B1E684FF4F27303FB00F423
:1051A000FFF724FA38B1325D0270012242702946BD
:1051B000FFF740FA70BD6FF00B00FBE7303F0020B7
:1051C00070B50E460A4B1D684FF4F27303FB00F4F2
:1051D000285DFFF70BFA38B12A5D02700722427092
:1051E0003146FFF727FA70BD6FF00B00FBE700BFF9
:1051F000303F002038B50C4B1D684FF4F27303FBB1
:1052000000F40021285DFFF7DBFF285DFFF7EEF9D2
:1052100038B12A5D0270022242700021FFF70AFABB
:1052200038BD6FF00B00FBE7303F002038B50C4B6A
:105230001D684FF4F27303FB00F40021285DFFF7B3
:10524000BFFF285DFFF7D2F938B12A5D0270032253
:1052500042700021FFF7EEF938BD6FF00B00FBE75D
:10526000303F0020F8B50E4615460D4B1F684FF431
:10527000F27303FB00F40021385DFFF7A1FF385DF6
:10528000FFF7B4F940B13A5D0270042242708670B3
:105290002946FFF7CFF9F8BD6FF00B00FBE700BF21
:1052A000303F002070B50E460C4B1D684FF4F27372
:1052B00003FB00F40021285DFFF782FF285DFFF764
:1052C00095F938B12A5D0270052242703146FFF728
:1052D000B1F970BD6FF00B00FBE700BF303F00205D
:1052E00070B50E460C4B1D684FF4F27303FB00F4CF
:1052F0000021285DFFF764FF285DFFF777F938B1DB
:105300002A5D0270062242703146FFF793F970BDA4
:105310006FF00B00FBE700BF303F002070B50E467A
:105320000A4B1D684FF4F27303FB00F4285DFFF78E
:105330005DF938B12A5D0270082242703146FFF7EC
:1053400079F970BD6FF00B00FBE700BF303F002024
:105350002DE9F04782B000AF81460D46704BD3F87F
:1053600000804FF4F27404FB00F408EB040618F814
:10537000042002EB42026B4800EB02103DF0AAFA57
:10538000D6F8E03173B3002D6FD05878FEF766FC85
:10539000EA4600233B7102237B718AB0EC461CF184
:1053A000100226D04FF0160E2AB1BEF1040F02DD16
:1053B0005D4BCCF8143000233B7002237B702AB382
:1053C0007346BEF1080F01DDCCF818000C2B01DD8F
:1053D000CCF81C50102B01DDCCF820900CF12403EC
:1053E000002111E04B46514A0221514833F084FF1D
:1053F00048E06FF0004ED7E701F10800384410F89C
:10540000080C03F8010B01310129F5D9BEF1150F84
:105410003CDD16234AB10521397100217971B9713A
:105420000121F9717868CCF8100000216FF30001B8
:105430006FF341016FF382016FF3C501012060F347
:105440008811C3F30A0363F353216FF31F51002341
:10545000374806F0ADFAD546D6F8E0315B78023B26
:10546000DBB2062B01D80F2D13D0D6F8E001FEF7E2
:105470006DFE0023C6F8E03118F804202D498B5446
:10548000002D48D00837BD46BDE8F0876FF01B03FC
:10549000C0E718F80430284A0121254833F02CFFD2
:1054A00018F804201E4B1B684FF4F27101FB023305
:1054B0005868FFF755F9D6F8E0014378023B062B10
:1054C000D3D8DFE803F004090E14191E23000121CC
:1054D0000078FFF78FFEC8E701210078FFF7A6FEEE
:1054E000C3E7012281780078FFF7BCFEBDE7012108
:1054F0000078FFF7D7FEB8E701210078FFF7F0FE4C
:10550000B3E701210078FFF75BFEAEE701210078E9
:10551000FFF704FFA9E71046FEF73EFFB2E700BF22
:10552000303F0020080B0020404B0400084B0400D3
:10553000B8370400483E0020744B04002DE9F041C8
:105540008CB002AF05460E46144635F0F3FD1E2220
:1055500007F10801FEF70EFC284603F07BFA05462A
:1055600094B9012E71D9037A042B09D0022B6CD087
:10557000027800923A4A01213A4833F0C8FE64E0CA
:10558000007802F0C1FD60E00178E84600233B713D
:1055900002237B718CB00DF1080C1CF1100222D09B
:1055A0001A2022B1042802DD2F4BCCF8143000233E
:1055B0003B7002237B701AB30346082803DD07F112
:1055C000080ECCF818E00C2B01DDCCF81C60102B79
:1055D00001DDCCF82040142B01DDCCF824100CF1B7
:1055E000280300210AE06FF00040DAE701F1280605
:1055F0003E4416F8286C03F8016B01310129F5D9F6
:1056000019282ADD1A234AB106213971002179713E
:10561000B9710121F9717868CCF8100000216FF39D
:1056200000016FF341016FF382016FF3C5010120A7
:1056300060F38811C3F30A0363F353216FF31F511F
:105640000023084806F0B4F9C54621462878FFF73C
:105650007FFE2837BD46BDE8F0816FF01B03D2E71F
:10566000C84B0400B8370400FC4B040070B582B08E
:10567000114D2D1A18BF0125104B1C684FF4F27301
:1056800003FB05440221606835F01EFD20B9237A32
:10569000052B0ED002B070BD064600950346084AA1
:1056A0000121084833F033FE31462846FFF750FE0B
:1056B000F0E702232372EDE7680B0020303F002063
:1056C000304C0400B837040070B50E460A4B1D6814
:1056D0004FF4F27303FB00F4285DFEF787FF38B147
:1056E0002A5D0270092242703146FEF7A3FF70BDA9
:1056F0006FF00B00FBE700BF303F002070B50E4697
:105700000A4B1D684FF4F27303FB00F4285DFEF7AB
:105710006DFF38B12A5D02700A2242703146FEF7F1
:1057200089FF70BD6FF00B00FBE700BF303F00202A
:1057300070B50E460A4B1D684FF4F27303FB00F47C
:10574000285DFEF753FF38B12A5D02700B224270CC
:105750003146FEF76FFF70BD6FF00B00FBE700BF37
:10576000303F002030B583B00C4632F0E6F80546F5
:105770006CB1037800932346084A0121084833F0AE
:10578000C6FD21462878FFF7E3FD03B030BD03785E
:10579000044A0321024833F0AFFDF2E7944C0400C1
:1057A00050390400CC4C040030B583B00C4632F0C4
:1057B000C4F805466CB1037800932346084A0121DA
:1057C000084833F0A4FD21462878FFF7C1FD03B057
:1057D00030BD0378044A0321024833F08DFDF2E71F
:1057E000F84C040050390400344D040030B583B047
:1057F0000C4632F0A2F805466CB1037800932346BC
:10580000084A0121084833F082FD21462878FFF735
:105810009FFD03B030BD0378044A0321024833F0F2
:105820006BFDF2E7644D040050390400904D040014
:1058300030B583B00C4632F080F805466CB1037881
:1058400000932346084A0121084833F060FD2146B1
:105850002878FFF77DFD03B030BD0378044A0321AB
:10586000024833F049FDF2E7B04D0400503904001E
:10587000D84D040030B583B00C4632F05EF80546D2
:105880006CB1037800932346084A0121084833F09D
:105890003EFD21462878FFF75BFD03B030BD03785D
:1058A000044A0321024833F027FDF2E7F44D0400D7
:1058B00050390400204E040030B583B00C4632F05D
:1058C0003CF805466CB1037800932346084A012151
:1058D000084833F01CFD21462878FFF739FD03B056
:1058E00030BD0378044A0321024833F005FDF2E796
:1058F000444E040050390400744E040070B582B068
:1059000006460D4632F019F8044695B90378114A57
:105910000321114833F0F0FCA6610123637429468A
:10592000207802F0CBFC00212078FFF711FD02B0B7
:1059300070BD037800932B46084A0121064833F0D6
:10594000E6FC2946207802F0B9FC29462078FFF7CA
:10595000FFFCECE7C84E040050390400984E0400E8
:10596000F0B585B002AF0D46164631F0E6FF0446AD
:10597000002D49D190F800C06D468AB002AB13F1FA
:1059800010024ED014219AB10846042903DDDFF835
:10599000A8E0C3F814E0082803DDDFF8A0E0C3F8AE
:1059A00018E00C2800DDDE61102801DDC3F820C0FE
:1059B000132939DD14263AB1052139710021797195
:1059C000B971F9717868186100216FF300016FF304
:1059D00041016FF382016FF3C501042363F3881162
:1059E000C6F30A0363F353216FF31F5100231448D6
:1059F00005F0DEFFAD46D4F8E03113B15B78082B3B
:105A000015D00C37BD46F0BD037800932B460D4AE8
:105A100001210B4833F07BFC29462078FFF798FCE6
:105A2000EFE76FF00041AEE76FF01B06C3E7002120
:105A30002078FFF78DFCE4E7184F04008450040041
:105A400050390400F04E04002DE9F04184B002AF5B
:105A50000E461546984631F070FF0446002E6CD174
:105A6000457708F00106037F66F3000303772846B5
:105A7000FAF7ECFB6249FAF741FC6249FAF7F2FCEB
:105A8000D4F8E03113B15B78072B63D0FAF786FDC9
:105A9000C0B294F800E06D468AB00DF1080C1CF11C
:105AA000100200F0A2801821C2B10B46042903DDC8
:105AB000DFF85481CCF81480082B03DDDFF84C812B
:105AC000CCF818800C2B01DDCCF81C00102B01DD6C
:105AD000CCF82060142B01DDCCF824E0172940F32A
